{
  "block_hash": "000000000000000000489e24c0f64b7027cc80d3d20faef1f1cdc3b0daac4019",
  "block_height": 508439,
  "block_index": 5,
  "hash": "1191bdc374a460839471cedb284fc82e5a9d2c45c49a4a4658db5ab9c5916911",
  "hex": "020000000001017127b4151fe75d84efe597d17fa5d5f644c506b46ec4fa9f107f119f01b3244c000000001716001413ecf507209720bc23e47368d98303629eed74e3feffffff0227eb0e00000000001976a9149b7016504b9b035c0ffbc54853d8758faf85271488ac2f801500000000001976a914abb8debac72eef4b426d81fac4810c5cb3971f9f88ac02473044022061d6ef24187f5666ed1d2c771d68f2ce8a0b539df632bd54ad757c9654d07f0202204cf5c998e43a934c8e241cb1a9ebff5ccecc06072dea47fe6e691d8ea61d10c70121027bb5772df97bbfc616b7a1ae91a986ea4d295f4e27d26ecf43e073f92d721b7a16c20700",
  "addresses": [
    "1FAt1gokixe9Y6QdHhXeJ5bjXmKCeNp6a6",
    "1Gez1oJoa5hwgfcXkYHj68298C4RQwApQA",
    "3BKAXzMepun6cBHGrouS95EnnYQAZVfXfz"
  ],
  "total": 2386774,
  "fees": 54400,
  "size": 142,
  "preference": "high",
  "relayed_by": "24.103.166.34:8333",
  "confirmed": "2018-02-09T22:44:55Z",
  "received": "2018-02-09T22:44:16.322Z",
  "ver": 2,
  "lock_time": 508438,
  "double_spend": false,
  "vin_sz": 1,
  "vout_sz": 2,
  "confirmations": 137,
  "confidence": 1,
  "inputs": [
    {
      "prev_hash": "4c24b3019f117f109ffac46eb406c544f6d5a57fd197e5ef845de71f15b42771",
      "output_index": 0,
      "script": "16001413ecf507209720bc23e47368d98303629eed74e3",
      "output_value": 2441174,
      "sequence": 4294967294,
      "addresses": [
        "3BKAXzMepun6cBHGrouS95EnnYQAZVfXfz"
      ],
      "script_type": "pay-to-script-hash",
      "age": 508427,
      "witness": [
        "3044022061d6ef24187f5666ed1d2c771d68f2ce8a0b539df632bd54ad757c9654d07f0202204cf5c998e43a934c8e241cb1a9ebff5ccecc06072dea47fe6e691d8ea61d10c701",
        "027bb5772df97bbfc616b7a1ae91a986ea4d295f4e27d26ecf43e073f92d721b7a"
      ]
    }
  ],
  "outputs": [
    {
      "value": 977703,
      "script": "76a9149b7016504b9b035c0ffbc54853d8758faf85271488ac",
      "spent_by": "b945cc88c7295a0fe53de3d654be277135957e8aaf9f243db94e19d889223a17",
      "addresses": [
        "1FAt1gokixe9Y6QdHhXeJ5bjXmKCeNp6a6"
      ],
      "script_type": "pay-to-pubkey-hash"
    },
    {
      "value": 1409071,
      "script": "76a914abb8debac72eef4b426d81fac4810c5cb3971f9f88ac",
      "spent_by": "dd1e147eaa6715f70e6be23d9af391b51fd19c76d26ba0ece865cf7539ab4f9b",
      "addresses": [
        "1Gez1oJoa5hwgfcXkYHj68298C4RQwApQA"
      ],
      "script_type": "pay-to-pubkey-hash"
    }
  ]
}